:100000000C94DB000C94F8000C94F8000C94F800AD
:100010000C94F8000C94F8000C94F8000C94F80080
:100020000C94F8000C94F8000C94F8000C94F80070
:100030000C94F8000C94F8000C9416080C94F8003A
:100040000C94F8000C94F8000C94BD070C94F80084
:100050000C94F8000C94F8000C94F8000C94F80040
:100060000C94F8000C94F80031303A35373A3337B5
:10007000004A756E2032322032303137000A0D507E
:10008000726F6772616D6D203F3F2000DC0053018D
:10009000C0001B01980063016B616C004B616C69CF
:1000A0006272696572756E6720646572204D657352
:1000B00073756E67006B616C203C576572743E000F
:1000C0007465737400636F6D6D616E646F20666F2D
:1000D000722074657374007465737400696E666F62
:1000E000004170706C69636174696F6E20696E663F
:1000F0006F7300696E666F004C696E652D4D6F649D
:10010000653A204354524C2D582C204354524C2DC8
:10011000592C204354524C2D432C20526574757237
:100120006E20200A0D004C0126052E01D4037369B0
:100130006E666F0053797374656D696E666F726D6C
:100140006174696F6E0073696E666F0068656C70CC
:10015000004C697374206F6620616C6C20636F6D56
:100160006D616E64730068656C7000202D3E2053D5
:10017000796E746178206572726F720A0D557361C1
:1001800067653A20004572726F723A20556E6B6E49
:100190006F776E20636F6D6D616E640A0D0045723E
:1001A000726F7220000A0D3E006364696E6F707397
:1001B0007578585B000011241FBECFEFD8E0DEBF7A
:1001C000CDBF12E0A0E0B1E0E0ECF2E202C00590A9
:1001D0000D92AA32B107D9F722E0AAE2B2E001C03B
:1001E0001D92AD37B207E1F70E9482080C945E11B0
:1001F0000C940000109232021092310280E680933B
:100200007C00EAE7F0E087E8808380818064808377
:10021000089508958091790080933202EAE7F0E032
:1002200080818064808308950895089508950895D5
:10023000089508950895CF92DF92EF92FF920F9361
:100240001F93CF93DF93882321F18B018150C82E18
:10025000D12C8FEFC81AD80AC0E0D0E08CE1E82E8C
:1002600081E0F82EF801808191810E5F1F4F9F93EE
:100270008F93DF93CF93FF92EF920E945A0B2196B8
:100280000F900F900F900F900F900F90CC15DD05F1
:1002900049F780E0DF91CF911F910F91FF90EF9090
:1002A000DF90CF90089585E291E09F938F930E9415
:1002B0005A0B80915F020E94B9030E9417030F90AE
:1002C0000F9080E008950F931F93CF93DF9300D09A
:1002D000CDB7DEB7823041F081E00F900F90DF9113
:1002E000CF911F910F910895FB011281038166E365
:1002F00071E0812F902F0E94DB0A892BE1F0CE0163
:1003000001969F938F9382E591E09F938F930F9334
:100310001F930E94A70B0F900F900F900F900F90BC
:100320000F900197C1F082E00F900F90DF91CF9175
:100330001F910F9108958AE391E09F938F930E94FC
:100340005A0B0F900F9080E00F900F90DF91CF919C
:100350001F910F9108958A818F9389818F9385E5ED
:1003600091E09F938F930E945A0B89E591E00E9440
:10037000770B89810F900F900F900F90F999FECF16
:1003800022E030E032BD21BD80BDFA9AF99A8DE6B7
:1003900091E00E94770B80E0A0CFF999FECF92BD4B
:1003A00081BD60BDFA9AF99A0895F999FECF92BD80
:1003B00081BDF89A80B5089510923302089508958A
:1003C00083E008958823C1F0813061F0823011F517
:1003D00088EB91E09F938F930E945A0B0F900F90A0
:1003E00088E2089584E991E09F938F930E945A0BCD
:1003F0000F900F9088E2089588EF90E00E9420030C
:1004000082E891E09F938F930E945A0B0F900F9078
:1004100084E108958FEF0895CF93813009F44AC0A5
:10042000C8F18230A1F5F999FECF82E090E092BD4B
:1004300081BDF89AC0B5609132028FE39CE90197C3
:10044000F1F700C0000070E080E090E00E941A091F
:100450009B01AC016AE077ED83E294E40E94A60878
:100460009F938F937F936F931F92CF938DED91E026
:100470009F938F930E945A0B8DB79EB708960FB625
:10048000F8949EBF0FBE8DBF8FEFCF9108958FEF71
:10049000CF91089587EC91E09F938F930E945A0B20
:1004A0008091310260E00E9484030F900F9082E0FF
:1004B000CF9108956336D1F080912A0290912B025A
:1004C0009C012F5F3F4F30932B0220932A029F9372
:1004D0008F938DEC91E09F938F930E945A0B0F9016
:1004E0000F900F900F9082E0CF91089521E030E0BF
:1004F00080E090E0E8CF20917502309176022817D5
:100500003907C1F49091630280916202981791F0CB
:10051000E091620281E08E0F80936202F0E0E15A86
:10052000FD4F868190916202903110F0109262022C
:1005300090E008958EEF9FEF08952091770230911B
:1005400078022617370751F49091C00095FFFCCF31
:100550008093C600082E000C990B08958EEF9FEF34
:10056000089585EE91E09F938F930E945A0BA4E328
:10057000B2E01296EC911297E1501296EC93F0E0F3
:10058000EC5CFD4F13820F900F90089586E1EFE52C
:10059000F2E0DF011D928A95E9F7BFEF22E587E0DF
:1005A000B15020408040E1F700C0000087EC87BDDB
:1005B00082E084BD85BD80936E0085BB92E29093FE
:1005C000C4001092C5008093C00086E08093C200F2
:1005D00088E98093C10080E284B915B8E5E7F2E0CC
:1005E0008EE091E09383828380E091E09183808329
:1005F00008958F3F11F08F5F08958FEF08958F3F1B
:100600002FEF920711F0019608958FEF9FEF089555
:1006100080915F0287FF0895789408958FB7EFE582
:10062000F2E090818078892B8083F894089586E2A7
:1006300092E09F938F930E945A0B0F900F90089512
:100640000F931F93CF93DF931F92CDB7DEB7BC01FB
:100650000AC06091770270917802082E000C990B05
:100660000E94220BB8018B010F5F1F4F41E050E049
:10067000CE0101960E94C00A89818111EACF0F90B4
:10068000DF91CF911F910F9108950E94200386E280
:1006900092E09F938F930E945A0B0F900F900895B2
:1006A000CF93DF931F92CDB7DEB719828636F1F074
:1006B000833789F0853631F08FEF9FEF0F90DF9110
:1006C000CF91089561157440B8F780E090E00F90E5
:1006D000DF91CF910895611589E0780768F7FB01F4
:1006E000808190E00F90DF91CF91089577FDE4CF66
:1006F00041E050E0CE0101960E94C00A898190E05D
:100700000F90DF91CF910895EF92FF921F93CF93B7
:10071000DF93D82F162FC1E0E62E660FFF086091F9
:100720007702709178028D2F0D2E000C990B88277F
:10073000990F881F9927C0960E94220BC43059F048
:10074000DD0FC83011F0CF5FEACFDF91CF911F915D
:10075000FF90EF900895111103C0DD0FCF5FDFCF41
:100760006091770270917802C7010E94220BDD0F21
:10077000F5CFCF93C82F1F928F9389EE91E09F936F
:100780008F930E945A0B60E28C2F0E9484030F907B
:100790000F900F900F90609177027091780289E22C
:1007A00090E0CF910C94220B0F931F93CF93DF9384
:1007B00082EF91E09F938F930E945A0B0FE512E016
:1007C000F80180810E94B903C6E2D2E0DF93CF93A3
:1007D0000E945A0B83E092E09F938F930E945A0BE2
:1007E000F80181810E94B903DF93CF930E945A0BD5
:1007F000EDB7FEB738960FB6F894FEBF0FBEEDBF4B
:1008000080E0DF91CF911F910F9108951F93CF93B7
:10081000DF93182FC92F9F938F9384E192E09F93CA
:100820008F930E945A0B60E28C2F0E948403C5E7CD
:10083000D2E06A817B8180E290E00E94220B60E23C
:10084000812F0E9484030F900F900F900F906A8168
:100850007B8189E290E0DF91CF911F910C94220B74
:10086000CF93DF93EB01FC012081203369F04AE054
:1008700050E060E070E00E94A609C617D70774F048
:10088000CB01DF91CF9108952181283781F740E195
:1008900050E060E070E00E94A609EFCF8FEF9FEF7D
:1008A000F0CF9091630280916202981738F48091A2
:1008B000630290916202805F891B089580916302B8
:1008C00090916202891B0895CF93C82F9FB7209102
:1008D0005F029078922B90935F02F8940E945104EB
:1008E000C817A0F490916202EC2FE90FE03160F498
:1008F000F0E0E15AFD4F868190E020915F0227FFF2
:1009000001C07894CF910895E051F2CF8FEF9FEF1F
:10091000F4CF8FB790915F028078892B80935F022C
:10092000F8948091C00087FF08C08091C600809332
:1009300065028091C00087FDF8CF1092620210928C
:1009400063021092640280915F0287FF0895789499
:1009500008952FB730915F022078232B20935F02F8
:10096000F89420916102282331E009F430E090915D
:100970006102982B9093610280915F0287FF01C012
:100980007894832F0895982F8FB720915F028078F5
:10099000822B80935F02F89420916102292381E0E9
:1009A00009F480E020916102909592239093610276
:1009B00090915F0297FF0895789408959091610255
:1009C000982381E009F480E00895811102C02D98F8
:1009D00008952D9A089595B180E2892785B90895E3
:1009E0001F93CF93DF9300D000D0CDB7DEB71A822C
:1009F00019821C821B82823000F11EEF180F0E94A8
:100A0000E001181770F4612F70E0660F771F660F12
:100A1000771F64577F4F44E050E0CE0101960E945B
:100A2000C00A69817A818B819C810F900F900F9011
:100A30000F90DF91CF911F910895682F70E0660F9E
:100A4000771F660F771F6A5D7E4FE5CF8F929F926B
:100A5000AF92BF92CF92DF92EF92FF920F931F93CC
:100A6000CF93DF9300E080E0C1E0C80F0E94F00464
:100A7000892B69F0CB010E94D20A081708F4082FCD
:100A80008C2FC1E0C80F0E94F004892B99F780E0F9
:100A900010E00F5F1F4F96E2C92E92E0D92ED1E0F1
:100AA000D80F0E94F0044B015C01AB2889F1CB0107
:100AB0000E942003C4010E94D20A7C01C82F9927FA
:100AC0000817190774F0609177027091780280E23C
:100AD00090E00E94220BCF5F2C2F30E0021713070B
:100AE00094F78FEFE81AF80AC701880D991D0E9444
:100AF0002003DF92CF920E945A0B0F900F908D2F00
:100B0000D1E0D80F0E94F0044B015C01AB2879F6CC
:100B100080E0DF91CF911F910F91FF90EF90DF90D8
:100B2000CF90BF90AF909F908F900895EF92FF92DB
:100B30000F931F93CF93DF931F92CDB7DEB7FC01C6
:100B4000608171818B010F5F1F4F41E050E0CE014A
:100B500001960E94C00AB80189818111F3CF780102
:100B6000FFEFEF1AFF0A41E050E0B801CE01019615
:100B70000E94C00A870189818111F1CFC7010E94BB
:100B800020030F90DF91CF911F910F91FF90EF9075
:100B90000895EF92FF920F931F93CF93DF93CDB7FA
:100BA000DEB72C970FB6F894DEBF0FBECDBF86E23E
:100BB00092E09F938F930E945A0BDE0111960F9043
:100BC0000F90E7E3F2E010E08081882309F457C03A
:100BD000803261F49F012F5F3F4FF90190812F5FB9
:100BE0003F4F9032D1F3992309F449C0ED93FD931F
:100BF0001F5F9F012F5F3F4F02C0992341F0F90112
:100C000090812F5F3F4F9032C1F71082F90114306D
:100C1000D9F6E981FA8180818823E1F080E009C07A
:100C200069857A8587E392E00E94C90A892BD1F110
:100C3000802F01E0080F0E94F00469877A878B8774
:100C40009C87EB84FC84E114F10451F785E891E082
:100C50000E94200385EA91E00E9420031092360250
:100C6000109237022C960FB6F894DEBF0FBECDBFA0
:100C7000DF91CF911F910F91FF90EF900895912FE9
:100C8000E92FF0E0EE0FFF1F21E030E02C0F3D1FB9
:100C9000E20FF31F118210829F5F943089F71123B6
:100CA000C9F2B7CF123041F46CE471E08B819C81C2
:100CB0000E94C90A892B61F1BE016F5F7F4F812FAE
:100CC000F7010995182F811109C086E292E09F93E0
:100CD0008F930E945A0B0F900F90BCCF8EE991E03A
:100CE0000E942003812F012E000C990B9F931F93CC
:100CF0008DE192E09F938F930E945A0B0F900F907B
:100D00000F900F9017FFE1CF8BE691E00E94200338
:100D1000CE0109960E949605D8CF809136028111A6
:100D200001C008950C94B1020F931F93CF93C62F67
:100D3000662361F0082F880F110B60917702709184
:100D40007802C8010E94220BC150B9F7CF911F91C0
:100D50000F910895CF93DF938091340280FF3DC0BF
:100D6000C0E00E945104882309F46CC08091750290
:100D7000909176020E94E40AC82F809130028A3056
:100D800011F0CD3021F0C0933002CA3051F780917C
:100D900034028C7F8093340280E292E09F938F93A1
:100DA0000E945A0B0F900F90DF91CF91089591E020
:100DB0009E0F90933602F0E0EC5CFD4F8383E92FA9
:100DC000F0E0EC5CFD4F1382609177027091780245
:100DD000082E000C990B0E94220B0E9451048823BC
:100DE00019F380917502909176020E94E40A909125
:100DF00030029A3011F08D30D9F08093300298EEA5
:100E0000980F923078F08A3099F08F3731F388302C
:100E100091F090EE980F9F3500F7E0913602E7329F
:100E2000E0F6C5CF80913402816080933402D5CF43
:100E30000E94C905D2CF80913602882371F20E94A8
:100E4000B102CBCFC83159F1C93109F47BC0C330ED
:100E500009F47FC0D0E08091340281FF27C08091E7
:100E600035026C2F0E940C02C82F882351F060912C
:100E700077027091780280E290E00E94220BC150CC
:100E8000B1F78DE090E00E94700B8091340282FFF8
:100E90008BCF8AE090E0DF91CF910C94700B809122
:100EA00034028D7F80933402D1E0D5CF85E292E089
:100EB0009F938F930E945A0B0F900F900EC08F5FDD
:100EC00080933502809135020E94E201C82F87FF8E
:100ED0000CC080913502882361F1DD2399F3809164
:100EE0003502D13061F38150EBCF86E292E09F93DF
:100EF0008F930E945A0B0F900F90CC2351F060916A
:100F00007702709178028DE290E00E94220BC1502E
:100F1000B1F786E292E09F938F930E945A0B8091E3
:100F200034028260809334020F900F90DF91CF9152
:100F3000089586E292E09F938F930E945A0B0F9040
:100F40000F90E7CF809134028D7F80933402DFEFE2
:100F500082CF8091340282FF07C080913402897F62
:100F600080933402D0E077CF809134028460809304
:100F70003402D0E070CF0C94AA061F920F920FB6E5
:100F80000F9211248F939F93EF93FF938091C6004C
:100F9000823539F180932F02E091630291E09E0F38
:100FA00090936302F0E0E15AFD4F868380916302E3
:100FB000803110F01092630290916302809162027E
:100FC0009817F9F0E0916302F0E0E15AFD4F1682C4
:100FD000FF91EF919F918F910F900FBE0F901F90F7
:100FE000189590912F029034A9F698E088E10FB6F9
:100FF000F894A895809360000FBE90936000A89528
:10100000FFCF8091630281110BC08FE08093630258
:10101000809164028F3F09F08F5F80936402D2CF8A
:1010200080916302815080936302F2CF1F920F92EE
:101030000FB60F9211242F933F934F935F936F93AB
:101040007F938F939F93AF93BF93EF93FF93809181
:101050002E028F5F8530E0F110922E0280912D02DA
:101060008F5F80932D0280912C028823C1F08091A4
:1010700060028F3F09F08F5F80936002FF91EF91D4
:10108000BF91AF919F918F917F916F915F914F91A0
:101090003F912F910F900FBE0F901F90189581E0F8
:1010A00080932C02789480912D0280FD19C081FDDF
:1010B00012C082FD1BC083FD1CC084FD1DC085FDC8
:1010C00012C086FD1CC087FF08C00E941A0105C01F
:1010D00080932E02D3CF0E94140110922C02CECF07
:1010E0000E940A01FACF0E941801F7CF0E94150151
:1010F000F4CF0E941601F1CF0E941701EECF0E949B
:101100001901EBCF0E94C6020E94FA000E94DC0186
:101110008DE790E00E94200381E790E00E94200389
:1011200080E290E00E94700B88E690E00E94450308
:101130000E9417038EE390E00E94700B78940E9447
:10114000BB070E9409010E94DF01F9CF0E94BA0883
:101150000C946C090E94650958F00E945E0940F0E9
:1011600029F45F3F29F00C94550951110C94A00902
:101170000C945B090E947D0968F39923B1F3552310
:1011800091F3951B550BBB27AA276217730784079A
:1011900038F09F5F5F4F220F331F441FAA1FA9F330
:1011A00035D00E2E3AF0E0E832D091505040E6951E
:1011B000001CCAF72BD0FE2F29D0660F771F881F7F
:1011C000BB1F261737074807AB07B0E809F0BB0B72
:1011D000802DBF01FF2793585F4F3AF09E3F510586
:1011E00078F00C9455090C94A0095F3FE4F3983E05
:1011F000D4F3869577956795B795F7959F5FC9F76F
:10120000880F911D9695879597F90895E1E0660FEF
:10121000771F881FBB1F621773078407BA0720F068
:10122000621B730B840BBA0BEE1F88F7E0950895D1
:10123000E89409C097FB3EF4909580957095619570
:101240007F4F8F4F9F4F9923A9F0F92F96E9BB2726
:101250009395F695879577956795B795F111F8CFA2
:10126000FAF4BB0F11F460FF1BC06F5F7F4F8F4F0D
:101270009F4F16C0882311F096E911C0772321F003
:101280009EE8872F762F05C0662371F096E8862F9B
:1012900070E060E02AF09A95660F771F881FDAF7F2
:1012A000880F9695879597F9089597F99F6780E835
:1012B00070E060E008959FEF80EC089500240A94A8
:1012C0001616170618060906089500240A94121621
:1012D0001306140605060895092E0394000C11F454
:1012E000882352F0BB0F40F4BF2B11F460FF04C001
:1012F0006F5F7F4F8F4F9F4F089557FD9058440F5A
:10130000551F59F05F3F71F04795880F97FB991F64
:1013100061F09F3F79F08795089512161306140621
:10132000551FF2CF4695F1DF08C0161617061806AE
:10133000991FF1CF86957105610508940895E89489
:10134000BB2766277727CB0197F90895A0E0B0E087
:10135000ECEAF9E00C9418115C016B017A0161155B
:10136000710519F0FB0191838083E114F10429F0E8
:10137000C7010297839708F0F1C0E5012196F501B6
:101380001081812F90E00E94B70A892B11F05E0135
:10139000F4CF1D3229F42196F501118101E007C037
:1013A0001B3221F4E5012296F501118100E0E114E0
:1013B000F10459F1F0E1EF16F10461F41033E1F4B6
:1013C00088818F7D883569F519812296026070E1E8
:1013D000E72EF12C88E0E816F10439F12CF4F2E064
:1013E000EF16F104C9F12AC08AE0E816F10479F099
:1013F000E0E1EE16F10411F550E1E52EF12C812C1F
:10140000912CA12C68E0B62E2CC01033C9F23AE022
:10141000E32EF12C4CEC842E982CA82C4CE0B42E0E
:1014200020C010E3E114F104A9F698E0E92EF12CB4
:10143000812C912CA12C20E1B22E13C060E070E031
:1014400080E090E897010F2C000C440B550B0E9494
:10145000EB1049015A0105C0812C912CA12C80E48C
:10146000B82E60E020E030E0A90127010F2C000C2D
:10147000660877081E01E0EDE10FEA3060F08FEBBF
:10148000810F8A3110F4E9EC05C08FE9810F8A31B0
:1014900028F5E9EAE10F8E2F90E08E159F05F4F410
:1014A00067FD18C082169306A406B50690F0C30126
:1014B000B2010E94DB109B01AC012E0F311D411DBA
:1014C000511D213031054105F0E85F0710F461E05E
:1014D00001C06FEF2196F1011081CCCF802F817078
:1014E000C114D10471F0662329F02197F601D1834C
:1014F000C08307C001FF19C02297F601D183C083C2
:1015000014C067FF12C0811105C02FEF3FEF4FEFEE
:101510005FE704C020E030E040E050E882E290E085
:1015200090937C0280937B0216C0882341F05095F3
:101530004095309521953F4F4F4F5F4F0CC057FF5F
:101540000AC082E290E090937C0280937B022FEFAE
:101550003FEF4FEF5FE7B901CA0104C060E070E000
:1015600080E090E0CDB7DEB7E2E10C943411911148
:101570000C944010803219F089508550C8F70895B6
:10158000FB01DC0102C005900D9241505040D8F79C
:101590000895FB01DC018D91059080190110D9F3AC
:1015A000990B0895FC0105900020E9F7809590952E
:1015B0008E0F9F1F0895FB01DC018D910190801912
:1015C0000110D9F3990B0895CF93DF93EC012B8190
:1015D00020FF33C026FF0AC02F7B2B838E819F8183
:1015E00001969F838E838A8190E029C022FF0FC0DD
:1015F000E881F9818081082E000C990B009719F47D
:1016000020622B831AC03196F983E8830EC0EA85E5
:10161000FB85099597FF09C02B81019611F080E2A7
:1016200001C080E1822B8B8308C02E813F812F5F18
:101630003F4F3F832E83992702C08FEF9FEFDF91AB
:10164000CF9108950F931F93CF93DF93FB012381D5
:1016500021FD03C08FEF9FEF28C022FF16C04681F7
:101660005781248135814217530744F4A081B18109
:101670009D012F5F3F4F318320838C9326813781DB
:101680002F5F3F4F3783268310C0EB01092F182FA0
:101690000084F185E02D0995892BE1F68E819F81EB
:1016A00001969F838E83812F902FDF91CF911F9181
:1016B0000F910895A0E0B0E0E0E6FBE00C94281163
:1016C000AE014B5F5F4FFA0161917191AF01809163
:1016D0007702909178020E94C00BE2E00C944411D2
:1016E00060917702709178020E94220B08950F9307
:1016F0001F93CF93DF93E0917702F09178022381DB
:1017000021FF1BC08C01D0E0C0E0F80181918F0166
:101710006091770270917802DB011896ED91FC914F
:101720001997882331F00995892B79F3DFEFCFEFF3
:10173000ECCF8AE00995892B19F08FEF9FEF02C05B
:101740008D2F9C2FDF91CF911F910F910895AEE0C7
:10175000B0E0EDEAFBE00C94281185E08C838B89E6
:101760009C899A838983AE01495E5F4F6D897E892A
:10177000CE0101960E94120F2E96E2E00C944411C5
:10178000ACE0B0E0E6ECFBE00C9418117C016B01DE
:101790008A01FC0117821682838181FFBDC1CE01BF
:1017A00001964C01F7019381F60193FD859193FF1A
:1017B00081916F01882309F4ABC1853239F493FD1F
:1017C000859193FF81916F01853229F4B70190E0F3
:1017D0000E94220BE7CF512C312C20E02032A0F4C4
:1017E0008B3269F030F4803259F0833269F4206131
:1017F0002CC08D3239F0803339F4216026C022604C
:10180000246023C0286021C027FD27C030ED380F99
:101810003A3078F426FF06C0FAE05F9E300D1124BE
:10182000532E13C08AE0389E300D1124332E2062CF
:101830000CC08E3221F426FD6BC1206406C08C36AC
:1018400011F4206802C0883641F4F60193FD8591B9
:1018500093FF81916F018111C1CF982F9F7D955486
:10186000933028F40C5F1F4FFFE3F9830DC08336DC
:1018700031F0833771F0833509F05BC022C0F80185
:10188000808189830E5F1F4F44244394512C54015F
:1018900015C03801F2E06F0E711CF801A080B18014
:1018A00026FF03C0652D70E002C06FEF7FEFC5011A
:1018B0002C870E9459102C0183012C852F77222E12
:1018C00017C03801F2E06F0E711CF801A080B180E2
:1018D00026FF03C0652D70E002C06FEF7FEFC501EA
:1018E0002C870E944E102C012C852068222E83010B
:1018F00023FC1BC0832D90E048165906B0F4B701B5
:1019000080E290E00E94220B3A94F4CFF50127FC8C
:10191000859127FE81915F01B70190E00E94220B23
:1019200031103A94F1E04F1A51084114510471F703
:10193000E5C0843611F0893639F5F80127FF07C074
:1019400060817181828193810C5F1F4F08C060812B
:101950007181072E000C880B990B0E5F1F4F2F769D
:10196000722E97FF09C090958095709561957F4F75
:101970008F4F9F4F2068722E2AE030E0A4010E9412
:101980007D10A82EA81844C0853729F42F7EB22ECA
:101990002AE030E025C0F22FF97FBF2E8F36C1F04C
:1019A00018F4883579F0B4C0803719F0883721F001
:1019B000AFC02F2F2061B22EB4FE0DC08B2D8460DE
:1019C000B82E09C024FF0AC09F2F9660B92E06C00A
:1019D00028E030E005C020E130E002C020E132E044
:1019E000F801B7FE07C060817181828193810C5F2D
:1019F0001F4F06C06081718180E090E00E5F1F4F35
:101A0000A4010E947D10A82EA818FB2DFF777F2E21
:101A100076FE0BC0372D3E7FA51450F474FE0AC02D
:101A200072FC08C0372D3E7E05C0BA2C372D03C08E
:101A3000BA2C01C0B52C34FF0DC0FE01EA0DF11D1A
:101A40008081803311F4397E09C032FF06C0B3941F
:101A5000B39404C0832F867809F0B39433FD13C088
:101A600030FF06C05A2CB31418F4530C5B18B32C77
:101A7000B31468F4B70180E290E03C870E94220B27
:101A8000B3943C85F5CFB31410F43B1801C0312C4E
:101A900034FF12C0B70180E390E03C870E94220B24
:101AA0003C8532FF17C031FD03C088E790E002C0DB
:101AB00088E590E0B7010CC0832F867859F031FF9C
:101AC00002C08BE201C080E237FD8DE2B70190E0F9
:101AD0000E94220BA51438F4B70180E390E00E9425
:101AE000220B5A94F7CFAA94F401EA0DF11D8081DC
:101AF000B70190E00E94220BA110F5CF332009F42A
:101B000051CEB70180E290E00E94220B3A94F6CFCA
:101B1000F7018681978102C08FEF9FEF2C96E2E15B
:101B20000C94341120FD09C0FC0123FD05C022FFE7
:101B300002C07383628351834083089544FD10C0C3
:101B400046FD10C0DB01FC01AA0FBB1FEE1FFF1FEB
:101B50001094D1F76A0F7B1F8E1F9F1F31E003C0C7
:101B600033E001C034E0660F771F881F991F3150A2
:101B7000D1F7620F711D811D911D08950F931F9361
:101B8000CF93DF938C01C8010E94E40AEC0197FD1A
:101B900008C00E94B70A892BB1F7B801CE010E9494
:101BA0006410CE01DF91CF911F910F910895A1E0B4
:101BB000B0E0EDEDFDE00C941E118C01C62E7A0113
:101BC00029830E94E40AAC01552729814B32510533
:101BD00021F04D32510569F42068CA94C11002C049
:101BE00080E076C0C80129830E94E40A298197FD1C
:101BF000F7CF322F3D7FD32E322F307349F580330C
:101C000039F5BB24BA94BC0C09F44EC0C801298331
:101C10000E94E40A298197FD47C0382F3F7D38355F
:101C200069F48D2D8264D82ECA94CA94CC20E1F137
:101C3000C8010E94E40A97FF0BC036C026FF04C00B
:101C40002D2D2260D22E03C03D2D3261D32ECB2C00
:101C5000812C912C540120ED280F283080F0D4FEE7
:101C600004C0B8010E9464101CC02A3040F0D6FEA7
:101C7000F8CF2F7D3FEE320F363098F727504D2D9D
:101C8000C501B4010E949E0D4B015C018D2D826047
:101C9000D82ECA94CC2059F0C8010E94E40A97FFBC
:101CA000DACFD1FC04C09CCF812C912C5401D7FEFB
:101CB00008C0B094A09490948094811C911CA11CA5
:101CC000B11C2D2DB501A401C7010E94920D81E028
:101CD0002196ECE00C943A11A1E2B0E0E2E7FEE0DC
:101CE0000C941C115C017A01CE0101966C0180E21A
:101CF000F60111928A95E9F7F501838040E050E002
:101D0000912C712C70E0A1E0B0E0F90183FC859189
:101D100083FE81918F01982F9F01811103C080E084
:101D200090E07CC08E3519F44115510549F1E72F3B
:101D3000F0E0E417F5073CF48D3559F18D3219F4D4
:101D4000772001F103C0711001C0982E892F86956C
:101D5000869586958601080F111D892F87703D0194
:101D600001C0660C8A95EAF7F80180818629808394
:101D7000991559F0991510F49F5FE8CF9150E6CF6F
:101D800071E004C07724739401C0712C4F5F5F4FE2
:101D9000BCCF772019F08E8180628E83711103C0D1
:101DA0009924939416C0F6019E012F5D3F4F8081C8
:101DB00080958193E217F307D1F7F2CFE114F10494
:101DC00029F0F7018083C70101967C016150912CB5
:101DD000F9F0C50169A30E94E40A69A197FD16C044
:101DE000282F269526952695F601E20FF11D2081D4
:101DF00030E0AC014770552702C0359527954A95CC
:101E0000E2F720FDDBCFB5010E946410911087CF6F
:101E1000E114F10411F0F7011082C801A196EEE07F
:101E20000C9438114F925F927F928F929F92AF9253
:101E3000BF92CF92DF92EF92FF920F931F93CF93B7
:101E4000DF931F92CDB7DEB76C012B015A01FC0165
:101E500017821682712CF601F380F201F3FC859152
:101E6000F3FE8191382F2F01882309F4F3C090E00D
:101E700039830E94B70A3981892B21F0C6010E945B
:101E8000BE0DE9CF353241F4F201F3FC3591F3FE9A
:101E900031912F01353269F4C60139830E94E40A79
:101EA000398197FDD5C03817B1F2B6010E94641090
:101EB000D1C03A3239F4F3FC3591F3FE31912F0160
:101EC00051E001C050E0420110E020ED230F2A3024
:101ED00090F45260612F70E080E090E040E259831E
:101EE0000E949E0D162FF401F3FC3591F3FE319103
:101EF0004F015981EACF052F232F240151FF03C041
:101F0000111102C0A7C01FEF383619F03C3659F046
:101F100011C0F401F3FC2591F3FE21912F01283625
:101F200049F4052F08600460F201F3FC2591F3FEEB
:101F300021912F01222309F48DC0622F70E089EADC
:101F400091E029830E9443102981892B09F482C0E2
:101F500000FD07C0F501E080F180C50102965C013B
:101F600002C0E12CF12C2E3651F4F6014681578146
:101F700060E070E0202FC7010E94920D6CCF2336E5
:101F800091F401FF11E0C6010E94E40A97FD60C0D0
:101F9000E114F10429F0F7018083C70101967C0167
:101FA000115089F751C02B3559F49201A701612FC7
:101FB000C6010E946C0E2C01892B09F045C03FC060
:101FC000C60129830E94BE0D298197FD41C02F368D
:101FD00059F128F4243631F1293649F127C0233745
:101FE00069F02537F9F022C0E114F10429F0F70176
:101FF0008082C70101967C01115071F0C6010E94D8
:10200000E40A4C0197FD08C00E94B70A892B61F3CE
:10201000B601C4010E946410E114F104A9F0F701B3
:10202000108212C0006203C0006101C00064202F52
:10203000A701612FC6010E94D70D811105C0F601CD
:102040008381807329F406C000FD05CF739403CF0C
:10205000772019F0872D90E002C08FEF9FEF0F904F
:10206000DF91CF911F910F91FF90EF90DF90CF9074
:10207000BF90AF909F908F907F905F904F9008950A
:10208000992788270895FC010590061621F0002065
:10209000D9F7C00108953197CF010895FC0105904B
:1020A000615070400110D8F7809590958E0F9F1F5A
:1020B0000895FC016150704001900110D8F780959F
:1020C00090958E0F9F1F0895FB01238120FF12C062
:1020D00026FD10C08F3F3FEF930761F082832F7D75
:1020E0002064238326813781215031093783268359
:1020F000992708958FEF9FEF0895FA01AA272830B6
:1021000051F1203181F1E8946F936E7F6E5F7F4FC4
:102110008F4F9F4FAF4FB1E03ED0B4E03CD0670F40
:10212000781F891F9A1FA11D680F791F8A1F911D93
:10213000A11D6A0F711D811D911DA11D20D009F4E3
:1021400068943F912AE0269F11243019305D319325
:10215000DEF6CF010895462F4770405D4193B3E00E
:102160000FD0C9F7F6CF462F4F70405D4A3318F0B5
:10217000495D31FD4052419302D0A9F7EACFB4E066
:10218000A6959795879577956795BA95C9F700971E
:102190006105710508959B01AC010A2E06945795BF
:1021A000479537952795BA95C9F7620F731F841F16
:1021B000951FA01D0895DB018F939F930E940D1121
:1021C000BF91AF91A29F800D911DA39F900DB29FD3
:1021D000900D11240895A1E21A2EAA1BBB1BFD012C
:1021E0000DC0AA1FBB1FEE1FFF1FA217B307E407F6
:1021F000F50720F0A21BB30BE40BF50B661F771F4E
:10220000881F991F1A9469F760957095809590952D
:102210009B01AC01BD01CF0108950E944F11A59F04
:10222000900DB49F900DA49F800D911D11240895D1
:102230002F923F924F925F926F927F928F929F92D6
:10224000AF92BF92CF92DF92EF92FF920F931F93C4
:10225000CF93DF93CDB7DEB7CA1BDB0B0FB6F89475
:10226000DEBF0FBECDBF09942A88398848885F84B5
:102270006E847D848C849B84AA84B984C884DF8026
:10228000EE80FD800C811B81AA81B981CE0FD11D0A
:102290000FB6F894DEBF0FBECDBFED010895A29F2B
:1022A000B001B39FC001A39F700D811D1124911D2A
:1022B000B29F700D811D1124911D0895F894FFCFD8
:1022C000000000010000000000007B020000000090
:1022D0000002000000009D020000000025753A2069
:1022E00025730A0D006170702E666C6167735F75EF
:1022F0003820203A20006F6666004D6F746F72655B
:102300002077657264656E206162676564726568D6
:10231000740025750025750A00566F722064656D7E
:1023200020C3BC62657274726167656E004E616342
:10233000682064656D20C3BC6265727472616765F4
:102340006E004C30207C206170702E666C6167736B
:102350005F7538004C31207C20636F756E74657238
:1023600020202870726573732027632720666F72A0
:1023700020726573657429004C32207C2053706193
:102380006E6E756E6720002020207C2000202020AB
:102390007C202030782530347820202000257520BE
:1023A0002B20256600082008003078253032782060
:1023B00028007379732E666C6167735F753820200F
:1023C0003A20007379732E7461736B4572725F7576
:1023D000383A2000307825303478202800256400F1
:0A23E0000A0A0D3E000A0A0D000073
:00000001FF
