:100000000C948F010C94AC010C94AC010C94AC01D9
:100010000C94AC010C94AC010C94AC010C94AC01AC
:100020000C94AC010C94AC010C94AC010C94AA0996
:100030000C94AC010C94AC010C94AC010C94AC018C
:100040000C94AC010C94AC010C94AC010C94000A1F
:100050000C94AC0131343A30323A3535004D617987
:100060002031382032303137000A0D50726F6772FC
:10007000616D6D203F3F20004301A0022701150262
:10008000EE004D02C300B0028C000C03766B616C75
:10009000004B616C696272696572656E206465729D
:1000A000207A75204D657373656E64656E2053709C
:1000B000616E6E756E6700766B616C203C77657261
:1000C000743E006D6F74004D6F746F722050574D09
:1000D000207365747A656E006D6F74206F6666209C
:1000E0007C203C70776D20302D3130303E006869C7
:1000F0006C6665004B6F6D6D616E646F206E616341
:100100006820566F727363686C6167204D6F65720B
:1001100074680068696C666520617267312061727D
:100120006732202E2E2E007465737400636F6D6D20
:10013000616E646F20666F722074657374007465FD
:10014000737400696E666F004170706C69636174EE
:10015000696F6E20696E666F7300696E666F004C22
:10016000696E652D4D6F64653A204354524C2D588D
:100170002C204354524C2D592C204354524C2D4387
:100180002C2052657475726E20200A0D00B3011385
:100190000795019B0573696E666F005379737465EB
:1001A0006D696E666F726D6174696F6E0073696EF2
:1001B000666F0068656C70004C697374206F662010
:1001C000616C6C20636F6D6D616E64730068656C4B
:1001D0007000202D3E2053796E7461782065727214
:1001E0006F720A0D55736167653A20004572726F30
:1001F000723A20556E6B6E6F776E20636F6D6D6116
:100200006E640A0D004572726F7220000A0D3E0086
:100210006E616E00696E660000407A10F35A00A0AD
:10022000724E18090010A5D4E80000E876481700BF
:1002300000E40B54020000CA9A3B000000E1F505FF
:10024000000080969800000040420F000000A08649
:1002500001000000102700000000E803000000007B
:100260006400000000000A0000000000010000001F
:1002700000002C76D888DC674F0823DFC1DFAE5939
:10028000E1B1B796E5E3E453C63AE651997696E8CC
:10029000E6C28426EB898C9B62ED407C6FFCEFBC50
:1002A0009C9F40F2BAA56FA5F490055A2AF75C937B
:1002B0006B6CF9676DC11BFCE0E40D47FEF520E6B1
:1002C000B500D0ED902E0300943577050080841E94
:1002D000080000204E0A000000C80C333333330FEF
:1002E000986E12831141EF8D2114893BE65516CF8C
:1002F000FEE6DB18D1844B381BF77C1D901DA4BB98
:10030000E424203284725E228100C9F124ECA1E54C
:100310003D276364696E6F70737578585B001124B4
:100320001FBECFE5D4E0DEBFCDBF12E0A0E6B0E057
:10033000E4EAFBE202C005900D92AC30B107D9F7B8
:1003400022E0ACE0B2E001C01D92A636B207E1F7B0
:100350000E946C0A0C94D0150C94000087E0E5E133
:10036000F2E0DF011D928A95E9F780E687B987E818
:1003700086B9369A089508958091160290911702D1
:10038000A0911802B09119020196A11DB11D809390
:10039000160290931702A0931802B093190280914D
:1003A0000C0290910D028E3C27E0920760F01092B3
:1003B0000D0210920C0280E080931B0285B18093A5
:1003C0001A02369A08959C012E5F3F4F30930D021A
:1003D00020930C02293E43E03407A8F02EEC37E0CE
:1003E000281B390BADECBCEC0E940C0E9695879542
:1003F000969587959695879580931B0285B18093F6
:100400001A02369A0895ADECBCEC0E940C0E96953B
:1004100087959695879596958795CECF089508955B
:1004200008950895089508950895CF92DF92EF9268
:10043000FF920F931F93CF93DF93882321F18B01BA
:100440008150C82ED12C8FEFC81AD80AC0E0D0E056
:100450008CE7E82E80E0F82EF801808191810E5F14
:100460001F4F9F938F93DF93CF93FF92EF920E9442
:100470002A1221960F900F900F900F900F900F90CF
:10048000CC15DD0549F780E0DF91CF911F910F91E9
:10049000FF90EF90DF90CF900895AF92BF92CF92F0
:1004A000DF92EF92FF920F931F93CF93DF9300D0D1
:1004B000CDB7DEB7C82E1F928F9385E890E09F934B
:1004C0008F9369837A830E942A120F900F900F9066
:1004D0000F9069817A81CC2029F18B01CA94D12CAB
:1004E0008FEFC81AD80AA12CB12C80E9E82E80E041
:1004F000F82EF801908121810E5F1F4F2F939F935B
:10050000BF92AF92FF92EF920E942A12FFEFAF1AB2
:10051000BF0A0F900F900F900F900F900F90AC1498
:10052000BD0439F780E00F900F90DF91CF911F91BC
:100530000F91FF90EF90DF90CF90BF90AF90089514
:100540008FE990E09F938F930E942A128091480236
:100550000E9480050E94DC040F900F9080E00895B7
:100560000F931F93CF93DF9300D0CDB7DEB78230C8
:1005700041F081E00F900F90DF91CF911F910F918B
:100580000895FB011281038160EB70E0812F902FB1
:100590000E94A011892B19F1CE0101969F938F9390
:1005A00089EB91E09F938F930F931F930E944712C3
:1005B0000F900F900F900F900F900F90019741F0B8
:1005C00082E00F900F90DF91CF911F910F910895CE
:1005D00089819A818536910590F083E0CBCF84EBB9
:1005E00090E09F938F930E942A120F900F9080E0CB
:1005F0000F900F90DF91CF911F910F9108959F93CE
:100600008F938CEC90E09F938F930E942A120F900F
:100610000F900F900F90AECF0F931F93CF93DF9358
:10062000C0E0CF93D0E0DF9310E01F9300E00F9382
:1006300081EF90E09F938F93FB0183818F93828161
:100640008F930E944712CF93DF931F930F9384EFF2
:1006500090E09F938F930E942A129E01602F712F2A
:10066000832F922F0E94C40E8DB79EB70E960FB6A1
:10067000F8949EBF0FBE8DBFE199FECF1FBA1EBA80
:100680006DBBE29AE19ADF91CF911F910F9108958E
:1006900010921C020895E199FECF9FBB8EBBE09A99
:1006A0008DB30895E199FECF1FBA1EBA6DBBE29AD1
:1006B000E19A0895089585E008958823E9F082304D
:1006C000A9F170F0833041F1843021F586E891E0A2
:1006D0009F938F930E942A120F900F9089E10895A3
:1006E0008130C1F488E291E09F938F930E942A1297
:1006F0000F900F9088E208958FE591E00E94E50445
:1007000086E191E09F938F930E942A120F900F90A1
:1007100084E108958FEF089587E591E09F938F938B
:100720000E942A120F900F9089E108958CE491E0C5
:100730009F938F930E942A120F900F9089E1089542
:10074000823009F489C010F5882309F44CC0813047
:1007500009F047C0633609F494C080910E0290916D
:100760000F029C012F5F3F4F30930F0220930E0228
:100770009F938F938AE991E09F938F930E942A120F
:100780000F900F900F900F9082E008958330D1F179
:10079000843039F560911A028FE295E70197F1F7FD
:1007A00000C0000070E080E090E00E94FC0E9B0121
:1007B000AC016AE077ED83E294E40E94520E9F93CD
:1007C0008F937F936F9383EC91E09F938F930E941D
:1007D0002A120F900F900F900F900F900F908FEFA5
:1007E00008958FEF089584E991E09F938F930E947D
:1007F0002A128091150260E00E944B050F900F9025
:1008000082E00895633641F41092160210921702A6
:10081000109218021092190220911B028091160268
:1008200090911702A0911802B09119021F922F9374
:10083000BF93AF939F938F938CEB91E09F938F9394
:100840000E942A128DB79EB708960FB6F8949EBFE5
:100850000FBE8DBF85E0089590911B0282B71F9255
:100860009F931F928F938AEA91E09F938F930E94A8
:100870002A120F900F900F900F900F900F9085E01D
:10088000089521E030E080E090E06ECF20915E029C
:1008900030915F0228173907C1F490914C02809182
:1008A0004B02981791F0E0914B0281E08E0F8093FC
:1008B0004B02F0E0E85BFD4F868190914B02903156
:1008C00010F010924B0290E008958EEF9FEF089584
:1008D00020916002309161022617370739F45D9B41
:1008E000FECF8CB9082E000C990B08958EEF9FEF68
:1008F000089588EC91E09F938F930E942A12ADE1B6
:10090000B2E01296EC911297E1501296EC93F0E05F
:10091000E35EFD4F13820F900F90089586E1E8E4A7
:10092000F2E0DF011D928A95E9F7BFE32EE785E04B
:10093000B15020408040E1F700C0000085E98CBF45
:100940008AE083BF82E089BF88BF8CE089B910BC90
:100950001BB886E880BD88E98AB98FE08BBB8ABB6B
:1009600084B38F7384BBEEE5F2E08EE690E0938370
:10097000828380E690E09183808308958F3F11F019
:100980008F5F08958FEF08958F3F2FEF920711F03B
:10099000019608958FEF9FEF08958091480287FF99
:1009A0000895789408958FB7E8E4F2E09081807814
:1009B000892B8083F894089589E092E09F938F9328
:1009C0000E942A120F900F9008950F931F93CF93B8
:1009D000DF931F92CDB7DEB7BC010AC06091600201
:1009E00070916102082E000C990B0E94F211B8015F
:1009F0008B010F5F1F4F41E050E0CE0101960E9436
:100A00007A1189818111EACF0F90DF91CF911F91E7
:100A10000F9108950E94E50489E092E09F938F93DF
:100A20000E942A120F900F900895CF93DF931F9288
:100A3000CDB7DEB719828636F1F0833789F0853677
:100A400031F08FEF9FEF0F90DF91CF9108956115F7
:100A50007240B8F780E090E00F90DF91CF91089559
:100A60006036E4E07E0768F7FB01808190E00F903C
:100A7000DF91CF910895611580E4780710F741E088
:100A800050E0CE0101960E947A11898190E00F908A
:100A9000DF91CF910895EF92FF921F93CF93DF9351
:100AA000D82F162FC1E0E62E660FFF086091600276
:100AB000709161028D2F0D2E000C990B8827990FD4
:100AC000881F9927C0960E94F211C43059F0DD0F9B
:100AD000C83011F0CF5FEACFDF91CF911F91FF9027
:100AE000EF900895111103C0DD0FCF5FDFCF60914C
:100AF000600270916102C7010E94F211DD0FF5CF13
:100B0000CF93C82F1F928F938CEC91E09F938F937C
:100B10000E942A1260E28C2F0E944B050F900F90CA
:100B20000F900F90609160027091610289E290E0F5
:100B3000CF910C94F2110F931F93CF93DF9385ED18
:100B400091E09F938F930E942A1208E412E0F8012B
:100B500080810E948005C9E0D2E0DF93CF930E949C
:100B60002A1286EE91E09F938F930E942A12F80139
:100B700081810E948005DF93CF930E942A12EDB7F6
:100B8000FEB738960FB6F894FEBF0FBEEDBF80E0FB
:100B9000DF91CF911F910F9108951F93CF93DF9312
:100BA000182FC92F9F938F9387EF91E09F938F9377
:100BB0000E942A1260E28C2F0E944B05CEE5D2E003
:100BC0006A817B8180E290E00E94F21160E2812FD5
:100BD0000E944B050F900F900F900F906A817B81C0
:100BE00089E290E0DF91CF911F910C94F211CF93A5
:100BF000DF93EB01FC012081203369F04AE050E0F3
:100C000060E070E00E94880FC617D70774F0CB0130
:100C1000DF91CF9108952181283781F740E150E09D
:100C200060E070E00E94880FEFCF8FEF9FEFF0CF72
:100C300090914C0280914B02981738F480914C02AD
:100C400090914B02805F891B089580914C02909196
:100C50004B02891B0895CF93C82F9FB7209148025C
:100C60009078922B90934802F8940E941806C81727
:100C7000A0F490914B02EC2FE90FE03160F4F0E02A
:100C8000E85BFD4F868190E02091480227FF01C07C
:100C90007894CF910895E051F2CF8FEF9FEFF4CF8A
:100CA0008FB7909148028078892B80934802F894FE
:100CB0005F9B05C08CB180934E025F99FBCF109271
:100CC0004B0210924C0210924D028091480287FF15
:100CD0000895789408952FB7309148022078232BF7
:100CE00020934802F89420914A02282331E009F425
:100CF00030E090914A02982B90934A0280914802EA
:100D000087FF01C07894832F0895982F8FB7209183
:100D100048028078822B80934802F89420914A02FE
:100D2000292381E009F480E020914A0290959223E2
:100D300090934A029091480297FF089578940895FD
:100D400090914A02982381E009F480E0089581118E
:100D500004C08FE08BBB18BA089580EF8BBB8FEF78
:100D600088BB0895843070F44BB321E030E061110A
:100D70000AC0B90102C0660F771F8A95E2F7CB015E
:100D8000842B8BBB0895B90102C0660F771F8A952B
:100D9000E2F7CB01809584238BBB0895843060F407
:100DA0004BB321E030E0B90102C0660F771F8A958E
:100DB000E2F7CB0184278BBB08951F93CF93DF937A
:100DC00000D000D0CDB7DEB71A8219821C821B82F8
:100DD000823000F11EEF180F0E945B03181770F4A9
:100DE000612F70E0660F771F660F771F68587F4F7F
:100DF00044E050E0CE0101960E947A1169817A8127
:100E00008B819C810F900F900F900F90DF91CF916D
:100E10001F910895682F70E0660F771F660F771F88
:100E200063577E4FE5CF8F929F92AF92BF92CF9242
:100E3000DF92EF92FF920F931F93CF93DF9300E027
:100E400080E0C1E0C80F0E94DD06892B69F0CB016C
:100E50000E948C11081708F4082F8C2FC1E0C80FCE
:100E60000E94DD06892B99F780E010E00F5F1F4F8D
:100E700099E0C92E92E0D92ED1E0D80F0E94DD066C
:100E80004B015C01AB2889F1CB010E94E504C40150
:100E90000E948C117C01C82F99270817190774F03C
:100EA000609160027091610280E290E00E94F21114
:100EB000CF5F2C2F30E00217130794F78FEFE81A5B
:100EC000F80AC701880D991D0E94E504DF92CF92B0
:100ED0000E942A120F900F908D2FD1E0D80F0E9400
:100EE000DD064B015C01AB2879F680E0DF91CF9104
:100EF0001F910F91FF90EF90DF90CF90BF90AF9038
:100F00009F908F900895EF92FF920F931F93CF932E
:100F1000DF931F92CDB7DEB7FC01608171818B0139
:100F20000F5F1F4F41E050E0CE0101960E947A1101
:100F3000B80189818111F3CF7801FFEFEF1AFF0A21
:100F400041E050E0B801CE0101960E947A1187017C
:100F500089818111F1CFC7010E94E5040F90DF91D3
:100F6000CF911F910F91FF90EF900895EF92FF9214
:100F70000F931F93CF93DF93CDB7DEB72C970FB6A8
:100F8000F894DEBF0FBECDBF89E092E09F938F93B0
:100F90000E942A12DE0111960F900F90E0E2F2E01B
:100FA00010E08081882309F457C0803261F49F01EA
:100FB0002F5F3F4FF90190812F5F3F4F9032D1F368
:100FC000992309F449C0ED93FD931F5F9F012F5FA3
:100FD0003F4F02C0992341F0F90190812F5F3F4FAD
:100FE0009032C1F71082F9011430D9F6E981FA8103
:100FF00080818823E1F080E009C069857A8580E2FC
:1010000092E00E948311892BD1F1802F01E0080F1B
:101010000E94DD0669877A878B879C87EB84FC8436
:10102000E114F10451F78CEE91E00E94E5048CE0AC
:1010300092E00E94E50410921F02109220022C966A
:101040000FB6F894DEBF0FBECDBFDF91CF911F91D9
:101050000F91FF90EF900895912FE92FF0E0EE0FA0
:10106000FF1F21E030E02C0F3D1FE20FF31F118224
:1010700010829F5F943089F71123C9F2B7CF1230E5
:1010800041F463EB71E08B819C810E948311892B79
:1010900061F1BE016F5F7F4F812FF7010995182F16
:1010A000811109C089E092E09F938F930E942A12D8
:1010B0000F900F90BCCF85E092E00E94E504812F55
:1010C000012E000C990B9F931F9380E092E09F9359
:1010D0008F930E942A120F900F900F900F9017FF7E
:1010E000E1CF82ED91E00E94E504CE0109960E94D5
:1010F0008307D8CF80911F02811101C008950C94FD
:1011000079040F931F93CF93C62F662361F0082FA6
:10111000880F110B6091600270916102C8010E94FA
:10112000F211C150B9F7CF911F910F910895CF934C
:10113000DF9380911D0280FF3DC0C0E00E94180631
:10114000882309F46CC080915E0290915F020E9436
:10115000B411C82F809114028A3011F0CD3021F0E3
:10116000C0931402CA3051F780911D028C7F809386
:101170001D0283E092E09F938F930E942A120F90AA
:101180000F90DF91CF91089591E09E0F90931F02F1
:10119000F0E0E35EFD4F8383E92FF0E0E35EFD4F77
:1011A00013826091600270916102082E000C990B0D
:1011B0000E94F2110E941806882319F380915E02A2
:1011C00090915F020E94B411909114029A3011F034
:1011D0008D30D9F08093140298EE980F923078F009
:1011E0008A3099F08F3731F3883091F090EE980F74
:1011F0009F3500F7E0911F02E732E0F6C5CF8091FE
:101200001D02816080931D02D5CF0E94B607D2CF08
:1012100080911F02882371F20E947904CBCFC831DC
:1012200059F1C93109F47BC0C33009F47FC0D0E063
:1012300080911D0281FF27C080911E026C2F0E94A9
:10124000A003C82F882351F0609160027091610261
:1012500080E290E00E94F211C150B1F78DE090E081
:101260000E94401280911D0282FF8BCF8AE090E0A5
:10127000DF91CF910C94401280911D028D7F80935D
:101280001D02D1E0D5CF88E092E09F938F930E941A
:101290002A120F900F900EC08F5F80931E028091D4
:1012A0001E020E945D03C82F87FF0CC080911E02A2
:1012B000882361F1DD2399F380911E02D13061F31F
:1012C0008150EBCF89E092E09F938F930E942A1286
:1012D0000F900F90CC2351F06091600270916102E9
:1012E0008DE290E00E94F211C150B1F789E092E0E6
:1012F0009F938F930E942A1280911D028260809397
:101300001D020F900F90DF91CF91089589E092E038
:101310009F938F930E942A120F900F90E7CF809196
:101320001D028D7F80931D02DFEF82CF80911D0211
:1013300082FF07C080911D02897F80931D02D0E04B
:1013400077CF80911D02846080931D02D0E070CF22
:101350000C9497081F920F920FB60F9211248F933F
:101360009F93EF93FF938CB1823539F180931302F1
:10137000E0914C0291E09E0F90934C02F0E0E85B0C
:10138000FD4F868380914C02803110F010924C0208
:1013900090914C0280914B029817E9F0E0914C0239
:1013A000F0E0E85BFD4F1682FF91EF919F918F91E6
:1013B0000F900FBE0F901F901895909113029034CC
:1013C000A9F698E088E10FB6F894A89581BD0FBE04
:1013D00091BDA895FFCF80914C0281110BC08FE089
:1013E00080934C0280914D028F3F09F08F5F809374
:1013F0004D02D4CF80914C02815080934C02F2CFA9
:101400001F920F920FB60F9211242F933F934F9379
:101410005F936F937F938F939F93AF93BF93EF935C
:10142000FF93809112028F5F8530E0F110921202DB
:10143000809111028F5F80931102809110028823A6
:10144000C1F0809149028F3F09F08F5F809349027C
:10145000FF91EF91BF91AF919F918F917F916F918C
:101460005F914F913F912F910F900FBE0F901F9062
:10147000189581E08093100278948091110280FD8C
:1014800019C081FD12C082FD1BC083FD1CC084FDFC
:101490001DC085FD12C086FD1CC087FF08C00E94CC
:1014A000140205C080931202D3CF0E940E02109244
:1014B0001002CECF0E94BC01FACF0E941202F7CFD9
:1014C0000E940F02F4CF0E941002F1CF0E9411027D
:1014D000EECF0E941302EBCF0E948E040E94AE0159
:1014E0000E94480389E690E00E94E5048DE590E0C3
:1014F0000E94E50480E290E00E94401284E590E0C2
:101500000E940A050E94DC048EE390E00E944012D3
:1015100078940E94A8090E94BB010E945A03F9CF47
:10152000A3E1B0E0E6E9FAE00C941B0E6C014B017C
:101530002A01FC0117821682838181FF43C3AE0119
:101540004F5F5F4F3A01F6019381F40193FD85915E
:1015500093FF81914F01882309F430C3853239F418
:1015600093FD859193FF81914F01853239F4B60146
:1015700090E00E94F21152012501E5CF10E0F12C1C
:1015800020E02032A0F48B3269F030F4803259F040
:10159000833269F420612CC08D3239F0803339F404
:1015A000216026C02260246023C0286021C027FD5E
:1015B00027C030ED380F3A3078F426FF06C0FAE045
:1015C0001F9F300D1124132F13C04AE0F49E300DDD
:1015D0001124F32E20620CC08E3221F426FDEEC2BF
:1015E000206406C08C3611F4206802C0883641F4AD
:1015F000F40193FD859193FF81914F018111C1CF3A
:101600009BEB980F933018F42061805E06C09BE935
:10161000980F933008F071C12F7E26FF16E02F73CC
:10162000322E853619F42064322E08C0863621F415
:10163000F22FF0683F2E02C01111115037FE07C083
:101640001C3350F4EE24E394E10E27E00BC0183075
:1016500038F027E017E005C027E04CE3E42E02C095
:10166000212FE12C520144E0A40EB11CF201608153
:101670007181828193810E2DA3010E9499102C010A
:10168000098100FF02C003FF07C031FC08C032FE21
:1016900009C030E2232E07C02DE2222E04C09BE2B7
:1016A000292E01C0212C802F8C7019F0211068C2C6
:1016B000A8C237FE0FC0E40C04FF04C08A81813346
:1016C00009F4EA941E1474F5F8E0FE1578F588E044
:1016D000E82E2CC036FC2AC0812F90E08415950599
:1016E0009CF02CEF42162FEF520674F0432D406809
:1016F000342E0AC0E2E0F0E0EC0FFD1FE10FF11D17
:101700008081803319F411501111F4CF37FE0EC0CF
:10171000EE24E394E10E812F90E0481659062CF454
:10172000141904C0EE24E39401C010E037FE06C093
:101730001414150434F4C201019605C085E090E04C
:1017400002C081E090E021100196112331F0212F99
:1017500030E02F5F3F4F820F931F2F2D30E0821715
:10176000930714F4F81A01C0F12C832D897049F401
:10177000FF2039F0B60180E290E00E94F211FA9465
:10178000F7CF222029F0B601822D90E00E94F211BD
:1017900033FC09C0FF2039F0B60180E390E00E94DD
:1017A000F211FA94F7CF37FE5AC0942D852D57FECB
:1017B00002C090E080E0292E382E20E030E0A20127
:1017C0004E1951095D874C87A201421953095F8761
:1017D0004E87612F70E044275527461B570B598BC6
:1017E000488B5FEF2516350649F4B6018EE290E08E
:1017F0002A8B3B8B0E94F2113B892A8942145304A5
:101800006CF04C855D854215530544F4EE85FF85EB
:10181000E20FF31FE60DF71D818101C080E351E067
:10182000251A31082F5F3F4F4889598924163506FC
:101830004CF0B60190E02A8B3B8B0E94F2112A8972
:101840003B89CFCF2414350439F49A81963318F4A8
:10185000953311F404FF81E3B60190E04BC08A8117
:10186000813309F00F7EB60190E00E94F211111150
:1018700005C034FC18C085E690E017C0B6018EE2C2
:1018800090E00E94F21182E0EE24E394E80EF3016E
:10189000E80FF11D8081B60190E00E94F211115015
:1018A0008E2D91F7E6CF85E490E0B6010E94F2110B
:1018B00057FC05C04114510439F404FF05C051948C
:1018C000419451088DE201C08BE2B60190E00E9484
:1018D000F21180E39AE0491651042CF08F5F5AE030
:1018E000451A5108F7CFB60190E00E94F211B601F7
:1018F000C201C0960E94F21157C1833631F083377E
:1019000079F0833509F058C021C05201E2E0AE0EF3
:10191000B11CF2018081898301E010E0230114C031
:101920005201F2E0AF0EB11CF2014080518026FF5F
:1019300003C0612F70E002C06FEF7FEFC2012A8BFE
:101940000E94A9118C012A892F7715C05201F2E05B
:10195000AF0EB11CF2014080518026FF03C0612F01
:1019600070E002C06FEF7FEFC2012A8B0E949511D9
:101970008C012A892068322E23FD1AC08F2D90E019
:1019800008171907A8F4B60180E290E00E94F2114E
:10199000FA94F4CFF20137FC859137FE81912F0143
:1019A000B60190E00E94F211F110FA940150110971
:1019B0000115110579F7F8C0843611F0893659F50B
:1019C000520127FF09C0F4E0AF0EB11CF2016081A3
:1019D0007181828193810AC0F2E0AF0EB11CF201E5
:1019E00060817181072E000C880B990B2F76322EA7
:1019F00097FF09C090958095709561957F4F8F4FA7
:101A00009F4F2068322E2AE030E0A3010E9460122E
:101A1000E82EE6183FC0022F853721F40F7E2AE01A
:101A200030E01DC0097F8F3691F018F4883559F0E9
:101A3000C5C0803719F0883711F0C0C0006104FFBD
:101A400009C0046007C024FF08C0066006C028E083
:101A500030E005C020E130E002C020E132E0520178
:101A600007FF09C0F4E0AF0EB11CF2016081718183
:101A70008281938108C0F2E0AF0EB11CF201608157
:101A8000718180E090E0A3010E946012E82EE618C8
:101A90000F77302E36FE0BC0332D3E7FE11650F40B
:101AA00034FE0AC032FC08C0332D3E7E05C00E2D28
:101AB000332D03C00E2D01C0012F34FF0CC0FE01D9
:101AC000EE0DF11D8081803311F4397E08C032FFA4
:101AD00005C00E5F04C0832F867809F00F5F33FDC9
:101AE00013C030FF06C01E2D0F1518F41F0D101B5C
:101AF0000F2D0F1568F4B60180E290E03B8B0E9439
:101B0000F2110F5F3B89F5CF0F1510F4F01A01C0E9
:101B1000F12C34FF12C0B60180E390E03B8B0E94B1
:101B2000F2113B8932FF17C031FD03C088E790E016
:101B300002C088E590E0B6010CC0832F867859F08A
:101B400031FF02C08BE201C080E237FD8DE2B601B9
:101B500090E00E94F211E11638F4B60180E390E0C3
:101B60000E94F2111150F7CFEA94F301EE0DF11D2E
:101B70008081B60190E00E94F211E110F5CF14C00F
:101B8000F4E0FF1558F584E0F81A33FE1EC021106A
:101B900026C003FF2AC000E112E0F32DF0713F2EB2
:101BA000F8018491811124C0FF2009F4E5CCB6012D
:101BB00080E290E00E94F211FA94F6CFF60186815D
:101BC000978126C08FEF9FEF23C0B60180E290E09F
:101BD0000E94F211FA94F110F8CFD9CFF12CB6018E
:101BE000822D90E00E94F211D4CF04E112E0D5CF13
:101BF00031108052B60190E00E94F2110F5F1F4F2A
:101C0000CFCF23E02F1510F483E0BECFF12CC1CF4E
:101C10006396E2E10C94370EA29FB001B39FC0011E
:101C2000A39F700D811D1124911DB29F700D811D08
:101C30001124911D08952F923F924F925F926F92BF
:101C40007F928F929F92AF92BF92CF92DF92EF924C
:101C5000FF920F931F93CF93DF93CDB7DEB7CA1BCD
:101C6000DB0B0FB6F894DEBF0FBECDBF09942A88F8
:101C7000398848885F846E847D848C849B84AA84A0
:101C8000B984C884DF80EE80FD800C811B81AA812D
:101C9000B981CE0FD11D0FB6F894DEBF0FBECDBFF8
:101CA000ED0108950E94660E0C944E0F0E94470F9E
:101CB00058F00E94400F40F029F45F3F29F00C9447
:101CC000370F51110C94820F0C943D0F0E945F0F3F
:101CD00068F39923B1F3552391F3951B550BBB275B
:101CE000AA2762177307840738F09F5F5F4F220FA0
:101CF000331F441FAA1FA9F335D00E2E3AF0E0E897
:101D000032D091505040E695001CCAF72BD0FE2FE0
:101D100029D0660F771F881FBB1F26173707480774
:101D2000AB07B0E809F0BB0B802DBF01FF2793582C
:101D30005F4F3AF09E3F510578F00C94370F0C94AA
:101D4000820F5F3FE4F3983ED4F3869577956795CD
:101D5000B795F7959F5FC9F7880F911D9695879561
:101D600097F90895E1E0660F771F881FBB1F621780
:101D700073078407BA0720F0621B730B840BBA0B3E
:101D8000EE1F88F7E09508950E94CB0E6894B1117C
:101D90000C94820F08950E94670F88F09F5798F067
:101DA000B92F9927B751B0F0E1F0660F771F881F60
:101DB000991F1AF0BA95C9F714C0B13091F00E947A
:101DC000810FB1E008950C94810F672F782F882739
:101DD000B85F39F0B93FCCF3869577956795B395A1
:101DE000D9F73EF490958095709561957F4F8F4F10
:101DF0009F4F0895E89409C097FB3EF49095809515
:101E0000709561957F4F8F4F9F4F9923A9F0F92FC0
:101E100096E9BB279395F695879577956795B7953E
:101E2000F111F8CFFAF4BB0F11F460FF1BC06F5F24
:101E30007F4F8F4F9F4F16C0882311F096E911C036
:101E4000772321F09EE8872F762F05C0662371F057
:101E500096E8862F70E060E02AF09A95660F771F6B
:101E6000881FDAF7880F9695879597F9089597F95F
:101E70009F6780E870E060E008959FEF80EC089530
:101E800000240A9416161706180609060895002459
:101E90000A9412161306140605060895092E0394D3
:101EA000000C11F4882352F0BB0F40F4BF2B11F447
:101EB00060FF04C06F5F7F4F8F4F9F4F089557FDA6
:101EC0009058440F551F59F05F3F71F04795880FA8
:101ED00097FB991F61F09F3F79F08795089512163F
:101EE00013061406551FF2CF4695F1DF08C01616EB
:101EF00017061806991FF1CF86957105610508949C
:101F00000895E894BB2766277727CB0197F90895B2
:101F1000A0E0B0E0EEE8FFE00C941B0E5C016B016A
:101F20007A016115710519F0FB0191838083E11439
:101F3000F10429F0C7010297839708F0F1C0E50189
:101F40002196F5011081812F90E00E947111892B5B
:101F500011F05E01F4CF1D3229F42196F5011181B3
:101F600001E007C01B3221F4E5012296F501118141
:101F700000E0E114F10459F1F0E1EF16F10461F42D
:101F80001033E1F488818F7D883569F519812296B7
:101F9000026070E1E72EF12C88E0E816F10439F1D7
:101FA0002CF4F2E0EF16F104C9F12AC08AE0E81639
:101FB000F10479F0E0E1EE16F10411F550E1E52EBF
:101FC000F12C812C912CA12C68E0B62E2CC0103362
:101FD000C9F23AE0E32EF12C4CEC842E982CA82C7C
:101FE0004CE0B42E20C010E3E114F104A9F698E00F
:101FF000E92EF12C812C912CA12C20E1B22E13C0C2
:1020000060E070E080E090E897010F2C000C440B3A
:10201000550B0E94A31549015A0105C0812C912C32
:10202000A12C80E4B82E60E020E030E0A901270177
:102030000F2C000C660877081E01E0EDE10FEA3076
:1020400060F08FEB810F8A3110F4E9EC05C08FE965
:10205000810F8A3128F5E9EAE10F8E2F90E08E1585
:102060009F05F4F467FD18C082169306A406B50612
:1020700090F0C301B2010E9493159B01AC012E0F99
:10208000311D411D511D213031054105F0E85F072B
:1020900010F461E001C06FEF2196F1011081CCCF07
:1020A000802F8170C114D10471F0662329F021972B
:1020B000F601D183C08307C001FF19C02297F60142
:1020C000D183C08314C067FF12C0811105C02FEFF8
:1020D0003FEF4FEF5FE704C020E030E040E050E822
:1020E00082E290E0909365028093640216C0882398
:1020F00041F050954095309521953F4F4F4F5F4FA0
:102100000CC057FF0AC082E290E090936502809372
:1021100064022FEF3FEF4FEF5FE7B901CA0104C040
:1021200060E070E080E090E0CDB7DEB7E2E10C94D3
:10213000370E283008F027E03327DA01990F311DD8
:1021400087FD916000966105710539F432602E5F5C
:102150003D9330E32A95E1F708959F3F30F08038B2
:102160007105610509F03C5F3C5F3D93913008F0DB
:102170008068911DDF93CF931F930F93FF92EF928F
:10218000192F987F9695E92F96959695E90FFF2739
:10219000EE58FD4F99273327EE24FF24A701E701CE
:1021A00005900894079428F4360FE71EF81E491F7F
:1021B000511D660F771F881F991F0694A1F7059080
:1021C000079428F4E70EF81E491F561FC11D770F0C
:1021D000881F991F661F0694A1F70590079428F49D
:1021E000F80E491F561FC71FD11D880F991F661F64
:1021F000771F0694A1F70590079420F4490F561F06
:10220000C71FD81F990F661F771F881F0694A9F74D
:1022100084911095177041F0D695C79557954795BD
:10222000F794E7941A95C1F7E8E1F2E06894159005
:10223000159135916591959105907FE27395E1181F
:10224000F10A430B560BC90BD009C0F7E10CF11E84
:10225000431F561FC91FD01D7EF4703311F48A9599
:10226000E6CFE894015030F0080F0AF40027021777
:1022700008F4202F2395022F7A3328F079E37D93F9
:102280002A95E9F710C07D932A9589F606949795CB
:102290006795379517951794E118F10A430B560B7C
:1022A000C90BD00998F023957E9173957A3308F085
:1022B00070E37C932013B8F77E9170617D9330F0CA
:1022C000839571E37D9370E32A95E1F71124EF90F4
:1022D000FF900F911F91CF91DF91992787FD9095E6
:1022E000089591110C946C15803219F08950855025
:1022F000C8F70895FB01DC0102C005900D92415022
:102300005040D8F70895FB01DC018D9105908019AC
:102310000110D9F3990B0895FC0105900020E9F70D
:10232000809590958E0F9F1F0895FC010590615038
:1023300070400110D8F7809590958E0F9F1F0895DB
:10234000FB01DC018D91019080190110D9F3990BEB
:102350000895FC016150704001900110D8F78095FC
:1023600090958E0F9F1F0895CF93DF93EC012B81E3
:1023700020FF33C026FF0AC02F7B2B838E819F81D5
:1023800001969F838E838A8190E029C022FF0FC02F
:10239000E881F9818081082E000C990B009719F4CF
:1023A00020622B831AC03196F983E8830EC0EA8538
:1023B000FB85099597FF09C02B81019611F080E2FA
:1023C00001C080E1822B8B8308C02E813F812F5F6B
:1023D0003F4F3F832E83992702C08FEF9FEFDF91FE
:1023E000CF9108950F931F93CF93DF93FB01238128
:1023F00021FD03C08FEF9FEF28C022FF16C046814A
:102400005781248135814217530744F4A081B1815B
:102410009D012F5F3F4F318320838C93268137812D
:102420002F5F3F4F3783268310C0EB01092F182FF2
:102430000084F185E02D0995892BE1F68E819F813D
:1024400001969F838E83812F902FDF91CF911F91D3
:102450000F910895A0E0B0E0E0E3F2E10C942B0EC0
:10246000AE014B5F5F4FFA0161917191AF018091B5
:102470006002909161020E94900AE2E00C94470E83
:1024800060916002709161020E94F2110895AEE0C5
:10249000B0E0EDE4F2E10C942B0E85E08C838B89A7
:1024A0009C899A838983AE01495E5F4F6D897E89DD
:1024B000CE0101960E943E142E96E2E00C94470E47
:1024C000FA01AA27283051F1203181F1E8946F9365
:1024D0006E7F6E5F7F4F8F4F9F4FAF4FB1E03ED00B
:1024E000B4E03CD0670F781F891F9A1FA11D680FA9
:1024F000791F8A1F911DA11D6A0F711D811D911DDC
:10250000A11D20D009F468943F912AE0269F112450
:102510003019305D3193DEF6CF010895462F4770B4
:10252000405D4193B3E00FD0C9F7F6CF462F4F700F
:10253000405D4A3318F0495D31FD4052419302D06D
:10254000A9F7EACFB4E0A695979587957795679513
:10255000BA95C9F700976105710508959B01AC0113
:102560000A2E06945795479537952795BA95C9F73A
:10257000620F731F841F951FA01D089520FD09C0C1
:10258000FC0123FD05C022FF02C0738362835183D7
:102590004083089544FD10C046FD10C0DB01FC01DE
:1025A000AA0FBB1FEE1FFF1F1094D1F76A0F7B1FEE
:1025B0008E1F9F1F31E003C033E001C034E0660F7F
:1025C000771F881F991F3150D1F7620F711D811D30
:1025D000911D08950F931F93CF93DF938C01C80132
:1025E0000E94B411EC0197FD08C00E947111892B63
:1025F000B1F7B801CE010E947A15CE01DF91CF91DB
:102600001F910F910895A1E0B0E0E9E0F3E10C948F
:10261000210E8C01C62E7A0129830E94B411AC01CF
:10262000552729814B32510521F04D32510569F46E
:102630002068CA94C11002C080E076C0C801298316
:102640000E94B411298197FDF7CF322F3D7FD32E01
:10265000322F307349F5803339F5BB24BA94BC0C62
:1026600009F44EC0C80129830E94B411298197FD45
:1026700047C0382F3F7D383569F48D2D8264D82EC0
:10268000CA94CA94CC20E1F1C8010E94B41197FF0A
:102690000BC036C026FF04C02D2D2260D22E03C0F1
:1026A0003D2D3261D32ECB2C812C912C540120ED69
:1026B000280F283080F0D4FE04C0B8010E947A159B
:1026C0001CC02A3040F0D6FEF8CF2F7D3FEE320FEF
:1026D000363098F727504D2DC501B4010E94CA121B
:1026E0004B015C018D2D8260D82ECA94CC2059F00C
:1026F000C8010E94B41197FFDACFD1FC04C09CCF6F
:10270000812C912C5401D7FE08C0B094A0949094D1
:102710008094811C911CA11CB11C2D2DB501A4011C
:10272000C7010E94BE1281E02196ECE00C943D0EA0
:10273000A1E2B0E0EEE9F3E10C941F0E5C017A0136
:10274000CE0101966C0180E2F60111928A95E9F7BB
:10275000F501838040E050E0912C712C70E0A1E005
:10276000B0E0F90183FC859183FE81918F01982F60
:102770009F01811103C080E090E07CC08E3519F488
:102780004115510549F1E72FF0E0E417F5073CF456
:102790008D3559F18D3219F4772001F103C0711094
:1027A00001C0982E892F8695869586958601080FFB
:1027B000111D892F87703D0101C0660C8A95EAF7CB
:1027C000F801808186298083991559F0991510F4B4
:1027D0009F5FE8CF9150E6CF71E004C077247394F7
:1027E00001C0712C4F5F5F4FBCCF772019F08E81F5
:1027F00080628E83711103C09924939416C0F601F0
:102800009E012F5D3F4F808180958193E217F307F2
:10281000D1F7F2CFE114F10429F0F7018083C70169
:1028200001967C016150912CF9F0C50169A30E94C9
:10283000B41169A197FD16C0282F269526952695D7
:10284000F601E20FF11D208130E0AC014770552701
:1028500002C0359527954A95E2F720FDDBCFB501FB
:102860000E947A15911087CFE114F10411F0F7015D
:102870001082C801A196EEE00C943B0E4F925F923D
:102880007F928F929F92AF92BF92CF92DF92EF9200
:10289000FF920F931F93CF93DF931F92CDB7DEB7B5
:1028A0006C012B015A01FC0117821682712CF60172
:1028B000F380F201F3FC8591F3FE8191382F2F0113
:1028C000882309F4F3C090E039830E9471113981A3
:1028D000892B21F0C6010E94EA12E9CF353241F47A
:1028E000F201F3FC3591F3FE31912F01353269F499
:1028F000C60139830E94B411398197FDD5C03817BC
:10290000B1F2B6010E947A15D1C03A3239F4F3FC23
:102910003591F3FE31912F0151E001C050E04201A9
:1029200010E020ED230F2A3090F45260612F70E008
:1029300080E090E040E259830E94CA12162FF40111
:10294000F3FC3591F3FE31914F015981EACF052F08
:10295000232F240151FF03C0111102C0A7C01FEF94
:10296000383619F03C3659F011C0F401F3FC2591CA
:10297000F3FE21912F01283649F4052F08600460E9
:10298000F201F3FC2591F3FE21912F01222309F49A
:102990008DC0622F70E082E193E029830E946F1561
:1029A0002981892B09F482C000FD07C0F501E08070
:1029B000F180C50102965C0102C0E12CF12C2E369B
:1029C00051F4F6014681578160E070E0202FC70185
:1029D0000E94BE126CCF233691F401FF11E0C601B4
:1029E0000E94B41197FD60C0E114F10429F0F701D1
:1029F0008083C70101967C01115089F751C02B35A6
:102A000059F49201A701612FC6010E9498132C016D
:102A1000892B09F045C03FC0C60129830E94EA12F4
:102A2000298197FD41C02F3659F128F4243631F120
:102A3000293649F127C0233769F02537F9F022C03C
:102A4000E114F10429F0F7018082C70101967C01AD
:102A5000115071F0C6010E94B4114C0197FD08C0DD
:102A60000E947111892B61F3B601C4010E947A158D
:102A7000E114F104A9F0F701108212C0006203C052
:102A8000006101C00064202FA701612FC6010E94D0
:102A90000313811105C0F6018381807329F406C0F8
:102AA00000FD05CF739403CF772019F0872D90E0B8
:102AB00002C08FEF9FEF0F90DF91CF911F910F9189
:102AC000FF90EF90DF90CF90BF90AF909F908F904E
:102AD0007F905F904F900895992788270895FC0173
:102AE0000590061621F00020D9F7C001089531970E
:102AF000CF010895FB01238120FF12C026FD10C0E5
:102B00008F3F3FEF930761F082832F7D2064238303
:102B100026813781215031093783268399270895EB
:102B20008FEF9FEF0895DB018F939F930E94C51550
:102B3000BF91AF91A29F800D911DA39F900DB29F59
:102B4000900D11240895A1E21A2EAA1BBB1BFD01B2
:102B50000DC0AA1FBB1FEE1FFF1FA217B307E4077C
:102B6000F50720F0A21BB30BE40BF50B661F771FD4
:102B7000881F991F1A9469F76095709580959095B4
:102B80009B01AC01BD01CF0108950E940C0EA59FD1
:102B9000900DB49F900DA49F800D911D1124089558
:042BA000F894FFCFD7
:102BA40000000001000000000000460400000000D6
:102BB40000020000000068040000000025753A20AF
:102BC40025730A0D0061726763203D2025750A0094
:102BD400617267635B25755D203D2025730A006182
:102BE40070702E666C6167735F753820203A200020
:102BF4006F6666004D6F746F7265207765726465E9
:102C04006E20616267656472656874004D6F746FED
:102C140072652077657264656E2061756620505711
:102C24004D20257525252067657365747A74200AFF
:102C340000256600446965205370616E6E756E6789
:102C44002077757264652061756620256620676546
:102C54007365747A74004C30207C206170702E6629
:102C64006C6167735F7538004C31207C20636F752D
:102C74006E74657220202870726573732027632731
:102C840020666F7220726573657429004C32207C53
:102C9400205430434E54004C33207C2074696D65BD
:102CA4002F6D73202050574D20202028707265739B
:102CB400732027632720666F722072657365742002
:102CC40054696D6529004C34207C205370616E6E0C
:102CD400756E67002020207C20002020207C20208E
:102CE400307825303478202020002020207C2020BB
:102CF400307825303278202020257500256C752009
:102D0400257500252E32660008200800307825300D
:102D140032782028007379732E666C6167735F754F
:102D24003820203A20007379732E7461736B4572D6
:102D3400725F75383A2000307825303478202800C6
:0C2D44002564000A0A0D3E000A0A0D007A
:00000001FF
